{
  "contractName": "NegativeEntropy",
  "abi": [
    {
      "inputs": [
        {
          "internalType": "address payable",
          "name": "_tA",
          "type": "address"
        },
        {
          "internalType": "address",
          "name": "_proxy",
          "type": "address"
        }
      ],
      "stateMutability": "nonpayable",
      "type": "constructor"
    },
    {
      "anonymous": false,
      "inputs": [
        {
          "indexed": true,
          "internalType": "address",
          "name": "owner",
          "type": "address"
        },
        {
          "indexed": true,
          "internalType": "address",
          "name": "approved",
          "type": "address"
        },
        {
          "indexed": true,
          "internalType": "uint256",
          "name": "tokenId",
          "type": "uint256"
        }
      ],
      "name": "Approval",
      "type": "event"
    },
    {
      "anonymous": false,
      "inputs": [
        {
          "indexed": true,
          "internalType": "address",
          "name": "owner",
          "type": "address"
        },
        {
          "indexed": true,
          "internalType": "address",
          "name": "operator",
          "type": "address"
        },
        {
          "indexed": false,
          "internalType": "bool",
          "name": "approved",
          "type": "bool"
        }
      ],
      "name": "ApprovalForAll",
      "type": "event"
    },
    {
      "anonymous": false,
      "inputs": [
        {
          "indexed": true,
          "internalType": "address",
          "name": "previousOwner",
          "type": "address"
        },
        {
          "indexed": true,
          "internalType": "address",
          "name": "newOwner",
          "type": "address"
        }
      ],
      "name": "OwnershipTransferred",
      "type": "event"
    },
    {
      "anonymous": false,
      "inputs": [
        {
          "indexed": true,
          "internalType": "bytes32",
          "name": "role",
          "type": "bytes32"
        },
        {
          "indexed": true,
          "internalType": "bytes32",
          "name": "previousAdminRole",
          "type": "bytes32"
        },
        {
          "indexed": true,
          "internalType": "bytes32",
          "name": "newAdminRole",
          "type": "bytes32"
        }
      ],
      "name": "RoleAdminChanged",
      "type": "event"
    },
    {
      "anonymous": false,
      "inputs": [
        {
          "indexed": true,
          "internalType": "bytes32",
          "name": "role",
          "type": "bytes32"
        },
        {
          "indexed": true,
          "internalType": "address",
          "name": "account",
          "type": "address"
        },
        {
          "indexed": true,
          "internalType": "address",
          "name": "sender",
          "type": "address"
        }
      ],
      "name": "RoleGranted",
      "type": "event"
    },
    {
      "anonymous": false,
      "inputs": [
        {
          "indexed": true,
          "internalType": "bytes32",
          "name": "role",
          "type": "bytes32"
        },
        {
          "indexed": true,
          "internalType": "address",
          "name": "account",
          "type": "address"
        },
        {
          "indexed": true,
          "internalType": "address",
          "name": "sender",
          "type": "address"
        }
      ],
      "name": "RoleRevoked",
      "type": "event"
    },
    {
      "anonymous": false,
      "inputs": [
        {
          "indexed": true,
          "internalType": "address",
          "name": "from",
          "type": "address"
        },
        {
          "indexed": true,
          "internalType": "address",
          "name": "to",
          "type": "address"
        },
        {
          "indexed": true,
          "internalType": "uint256",
          "name": "tokenId",
          "type": "uint256"
        }
      ],
      "name": "Transfer",
      "type": "event"
    },
    {
      "inputs": [],
      "name": "DEFAULT_ADMIN_ROLE",
      "outputs": [
        {
          "internalType": "bytes32",
          "name": "",
          "type": "bytes32"
        }
      ],
      "stateMutability": "view",
      "type": "function",
      "constant": true
    },
    {
      "inputs": [],
      "name": "MINTER_ROLE",
      "outputs": [
        {
          "internalType": "bytes32",
          "name": "",
          "type": "bytes32"
        }
      ],
      "stateMutability": "view",
      "type": "function",
      "constant": true
    },
    {
      "inputs": [],
      "name": "PRICE",
      "outputs": [
        {
          "internalType": "uint256",
          "name": "",
          "type": "uint256"
        }
      ],
      "stateMutability": "view",
      "type": "function",
      "constant": true
    },
    {
      "inputs": [
        {
          "internalType": "address",
          "name": "to",
          "type": "address"
        },
        {
          "internalType": "uint256",
          "name": "tokenId",
          "type": "uint256"
        }
      ],
      "name": "approve",
      "outputs": [],
      "stateMutability": "nonpayable",
      "type": "function"
    },
    {
      "inputs": [
        {
          "internalType": "address",
          "name": "owner",
          "type": "address"
        }
      ],
      "name": "balanceOf",
      "outputs": [
        {
          "internalType": "uint256",
          "name": "",
          "type": "uint256"
        }
      ],
      "stateMutability": "view",
      "type": "function",
      "constant": true
    },
    {
      "inputs": [],
      "name": "baseURI",
      "outputs": [
        {
          "internalType": "string",
          "name": "",
          "type": "string"
        }
      ],
      "stateMutability": "view",
      "type": "function",
      "constant": true
    },
    {
      "inputs": [
        {
          "internalType": "uint256",
          "name": "tokenId",
          "type": "uint256"
        }
      ],
      "name": "getApproved",
      "outputs": [
        {
          "internalType": "address",
          "name": "",
          "type": "address"
        }
      ],
      "stateMutability": "view",
      "type": "function",
      "constant": true
    },
    {
      "inputs": [
        {
          "internalType": "bytes32",
          "name": "role",
          "type": "bytes32"
        }
      ],
      "name": "getRoleAdmin",
      "outputs": [
        {
          "internalType": "bytes32",
          "name": "",
          "type": "bytes32"
        }
      ],
      "stateMutability": "view",
      "type": "function",
      "constant": true
    },
    {
      "inputs": [
        {
          "internalType": "bytes32",
          "name": "role",
          "type": "bytes32"
        },
        {
          "internalType": "uint256",
          "name": "index",
          "type": "uint256"
        }
      ],
      "name": "getRoleMember",
      "outputs": [
        {
          "internalType": "address",
          "name": "",
          "type": "address"
        }
      ],
      "stateMutability": "view",
      "type": "function",
      "constant": true
    },
    {
      "inputs": [
        {
          "internalType": "bytes32",
          "name": "role",
          "type": "bytes32"
        }
      ],
      "name": "getRoleMemberCount",
      "outputs": [
        {
          "internalType": "uint256",
          "name": "",
          "type": "uint256"
        }
      ],
      "stateMutability": "view",
      "type": "function",
      "constant": true
    },
    {
      "inputs": [
        {
          "internalType": "bytes32",
          "name": "role",
          "type": "bytes32"
        },
        {
          "internalType": "address",
          "name": "account",
          "type": "address"
        }
      ],
      "name": "grantRole",
      "outputs": [],
      "stateMutability": "nonpayable",
      "type": "function"
    },
    {
      "inputs": [
        {
          "internalType": "bytes32",
          "name": "role",
          "type": "bytes32"
        },
        {
          "internalType": "address",
          "name": "account",
          "type": "address"
        }
      ],
      "name": "hasRole",
      "outputs": [
        {
          "internalType": "bool",
          "name": "",
          "type": "bool"
        }
      ],
      "stateMutability": "view",
      "type": "function",
      "constant": true
    },
    {
      "inputs": [
        {
          "internalType": "address",
          "name": "owner",
          "type": "address"
        },
        {
          "internalType": "address",
          "name": "operator",
          "type": "address"
        }
      ],
      "name": "isApprovedForAll",
      "outputs": [
        {
          "internalType": "bool",
          "name": "",
          "type": "bool"
        }
      ],
      "stateMutability": "view",
      "type": "function",
      "constant": true
    },
    {
      "inputs": [],
      "name": "maxQuantity",
      "outputs": [
        {
          "internalType": "uint256",
          "name": "",
          "type": "uint256"
        }
      ],
      "stateMutability": "view",
      "type": "function",
      "constant": true
    },
    {
      "inputs": [],
      "name": "name",
      "outputs": [
        {
          "internalType": "string",
          "name": "",
          "type": "string"
        }
      ],
      "stateMutability": "view",
      "type": "function",
      "constant": true
    },
    {
      "inputs": [],
      "name": "owner",
      "outputs": [
        {
          "internalType": "address",
          "name": "",
          "type": "address"
        }
      ],
      "stateMutability": "view",
      "type": "function",
      "constant": true
    },
    {
      "inputs": [
        {
          "internalType": "uint256",
          "name": "tokenId",
          "type": "uint256"
        }
      ],
      "name": "ownerOf",
      "outputs": [
        {
          "internalType": "address",
          "name": "",
          "type": "address"
        }
      ],
      "stateMutability": "view",
      "type": "function",
      "constant": true
    },
    {
      "inputs": [],
      "name": "renounceOwnership",
      "outputs": [],
      "stateMutability": "nonpayable",
      "type": "function"
    },
    {
      "inputs": [
        {
          "internalType": "bytes32",
          "name": "role",
          "type": "bytes32"
        },
        {
          "internalType": "address",
          "name": "account",
          "type": "address"
        }
      ],
      "name": "renounceRole",
      "outputs": [],
      "stateMutability": "nonpayable",
      "type": "function"
    },
    {
      "inputs": [
        {
          "internalType": "bytes32",
          "name": "role",
          "type": "bytes32"
        },
        {
          "internalType": "address",
          "name": "account",
          "type": "address"
        }
      ],
      "name": "revokeRole",
      "outputs": [],
      "stateMutability": "nonpayable",
      "type": "function"
    },
    {
      "inputs": [
        {
          "internalType": "address",
          "name": "from",
          "type": "address"
        },
        {
          "internalType": "address",
          "name": "to",
          "type": "address"
        },
        {
          "internalType": "uint256",
          "name": "tokenId",
          "type": "uint256"
        }
      ],
      "name": "safeTransferFrom",
      "outputs": [],
      "stateMutability": "nonpayable",
      "type": "function"
    },
    {
      "inputs": [
        {
          "internalType": "address",
          "name": "from",
          "type": "address"
        },
        {
          "internalType": "address",
          "name": "to",
          "type": "address"
        },
        {
          "internalType": "uint256",
          "name": "tokenId",
          "type": "uint256"
        },
        {
          "internalType": "bytes",
          "name": "_data",
          "type": "bytes"
        }
      ],
      "name": "safeTransferFrom",
      "outputs": [],
      "stateMutability": "nonpayable",
      "type": "function"
    },
    {
      "inputs": [
        {
          "internalType": "address",
          "name": "operator",
          "type": "address"
        },
        {
          "internalType": "bool",
          "name": "approved",
          "type": "bool"
        }
      ],
      "name": "setApprovalForAll",
      "outputs": [],
      "stateMutability": "nonpayable",
      "type": "function"
    },
    {
      "inputs": [
        {
          "internalType": "bytes4",
          "name": "interfaceId",
          "type": "bytes4"
        }
      ],
      "name": "supportsInterface",
      "outputs": [
        {
          "internalType": "bool",
          "name": "",
          "type": "bool"
        }
      ],
      "stateMutability": "view",
      "type": "function",
      "constant": true
    },
    {
      "inputs": [],
      "name": "symbol",
      "outputs": [
        {
          "internalType": "string",
          "name": "",
          "type": "string"
        }
      ],
      "stateMutability": "view",
      "type": "function",
      "constant": true
    },
    {
      "inputs": [
        {
          "internalType": "uint256",
          "name": "index",
          "type": "uint256"
        }
      ],
      "name": "tokenByIndex",
      "outputs": [
        {
          "internalType": "uint256",
          "name": "",
          "type": "uint256"
        }
      ],
      "stateMutability": "view",
      "type": "function",
      "constant": true
    },
    {
      "inputs": [
        {
          "internalType": "address",
          "name": "owner",
          "type": "address"
        },
        {
          "internalType": "uint256",
          "name": "index",
          "type": "uint256"
        }
      ],
      "name": "tokenOfOwnerByIndex",
      "outputs": [
        {
          "internalType": "uint256",
          "name": "",
          "type": "uint256"
        }
      ],
      "stateMutability": "view",
      "type": "function",
      "constant": true
    },
    {
      "inputs": [
        {
          "internalType": "uint256",
          "name": "tokenId",
          "type": "uint256"
        }
      ],
      "name": "tokenURI",
      "outputs": [
        {
          "internalType": "string",
          "name": "",
          "type": "string"
        }
      ],
      "stateMutability": "view",
      "type": "function",
      "constant": true
    },
    {
      "inputs": [],
      "name": "totalSupply",
      "outputs": [
        {
          "internalType": "uint256",
          "name": "",
          "type": "uint256"
        }
      ],
      "stateMutability": "view",
      "type": "function",
      "constant": true
    },
    {
      "inputs": [
        {
          "internalType": "address",
          "name": "from",
          "type": "address"
        },
        {
          "internalType": "address",
          "name": "to",
          "type": "address"
        },
        {
          "internalType": "uint256",
          "name": "tokenId",
          "type": "uint256"
        }
      ],
      "name": "transferFrom",
      "outputs": [],
      "stateMutability": "nonpayable",
      "type": "function"
    },
    {
      "inputs": [
        {
          "internalType": "address",
          "name": "newOwner",
          "type": "address"
        }
      ],
      "name": "transferOwnership",
      "outputs": [],
      "stateMutability": "nonpayable",
      "type": "function"
    },
    {
      "inputs": [],
      "name": "treasuryAddress",
      "outputs": [
        {
          "internalType": "address payable",
          "name": "",
          "type": "address"
        }
      ],
      "stateMutability": "view",
      "type": "function",
      "constant": true
    },
    {
      "inputs": [
        {
          "internalType": "address payable",
          "name": "to",
          "type": "address"
        },
        {
          "internalType": "uint8",
          "name": "v",
          "type": "uint8"
        },
        {
          "internalType": "bytes32",
          "name": "r",
          "type": "bytes32"
        },
        {
          "internalType": "bytes32",
          "name": "s",
          "type": "bytes32"
        },
        {
          "internalType": "string",
          "name": "tokenURI",
          "type": "string"
        },
        {
          "internalType": "string",
          "name": "seedDesired",
          "type": "string"
        }
      ],
      "name": "mint",
      "outputs": [],
      "stateMutability": "payable",
      "type": "function",
      "payable": true
    },
    {
      "inputs": [
        {
          "internalType": "string",
          "name": "seed",
          "type": "string"
        },
        {
          "internalType": "string",
          "name": "tokenURI",
          "type": "string"
        },
        {
          "internalType": "address",
          "name": "account",
          "type": "address"
        },
        {
          "internalType": "uint8",
          "name": "v",
          "type": "uint8"
        },
        {
          "internalType": "bytes32",
          "name": "r",
          "type": "bytes32"
        },
        {
          "internalType": "bytes32",
          "name": "s",
          "type": "bytes32"
        }
      ],
      "name": "addressFromSignature",
      "outputs": [
        {
          "internalType": "address",
          "name": "",
          "type": "address"
        }
      ],
      "stateMutability": "view",
      "type": "function",
      "constant": true
    },
    {
      "inputs": [
        {
          "internalType": "uint256",
          "name": "tokenId",
          "type": "uint256"
        }
      ],
      "name": "burn",
      "outputs": [],
      "stateMutability": "nonpayable",
      "type": "function"
    },
    {
      "inputs": [
        {
          "internalType": "string",
          "name": "checkSeed",
          "type": "string"
        }
      ],
      "name": "seedClaimed",
      "outputs": [
        {
          "internalType": "bool",
          "name": "",
          "type": "bool"
        }
      ],
      "stateMutability": "view",
      "type": "function",
      "constant": true
    },
    {
      "inputs": [],
      "name": "getTokenCount",
      "outputs": [
        {
          "internalType": "uint256",
          "name": "",
          "type": "uint256"
        }
      ],
      "stateMutability": "view",
      "type": "function",
      "constant": true
    },
    {
      "inputs": [
        {
          "internalType": "uint256",
          "name": "quant",
          "type": "uint256"
        }
      ],
      "name": "setMaxQuantity",
      "outputs": [],
      "stateMutability": "nonpayable",
      "type": "function"
    }
  ],
  "bytecode": "0x60806040526000600d556103e8600e553480156200001c57600080fd5b5060405162005fb538038062005fb583398181016040528101906200004291906200066b565b6040518060400160405280601081526020017f4e6567617469766520456e74726f7079000000000000000000000000000000008152506040518060400160405280600481526020017f4e47545600000000000000000000000000000000000000000000000000000000815250828282620000c96301ffc9a760e01b6200032960201b60201c565b8160079080519060200190620000e192919062000597565b508060089080519060200190620000fa92919062000597565b50620001136380ac58cd60e01b6200032960201b60201c565b6200012b635b5e139f60e01b6200032960201b60201c565b6200014363780e9d6360e01b6200032960201b60201c565b50506000620001576200040160201b60201c565b905080600b60006101000a81548173ffffffffffffffffffffffffffffffffffffffff021916908373ffffffffffffffffffffffffffffffffffffffff1602179055508073ffffffffffffffffffffffffffffffffffffffff16600073ffffffffffffffffffffffffffffffffffffffff167f8be0079c531659141344cd1fd0a4f28419497f9722a3daafe3b4186f6b6457e060405160405180910390a35080600c60006101000a81548173ffffffffffffffffffffffffffffffffffffffff021916908373ffffffffffffffffffffffffffffffffffffffff1602179055505050506200027b7f9f2df0fed2c77648de5860a4cc508cd0818c85b8b8a1ab4ceeef8d981c8956a66200026f6200040160201b60201c565b6200040960201b60201c565b6200029f6000801b620002936200040160201b60201c565b6200040960201b60201c565b81600f60006101000a81548173ffffffffffffffffffffffffffffffffffffffff021916908373ffffffffffffffffffffffffffffffffffffffff16021790555080600c60006101000a81548173ffffffffffffffffffffffffffffffffffffffff021916908373ffffffffffffffffffffffffffffffffffffffff16021790555050506200079d565b63ffffffff60e01b817bffffffffffffffffffffffffffffffffffffffffffffffffffffffff1916141562000395576040517f08c379a00000000000000000000000000000000000000000000000000000000081526004016200038c90620006ee565b60405180910390fd5b6001806000837bffffffffffffffffffffffffffffffffffffffffffffffffffffffff19167bffffffffffffffffffffffffffffffffffffffffffffffffffffffff1916815260200190815260200160002060006101000a81548160ff02191690831515021790555050565b600033905090565b6200041b82826200041f60201b60201c565b5050565b6200044d81600080858152602001908152602001600020600001620004c260201b62001f6e1790919060201c565b15620004be57620004636200040160201b60201c565b73ffffffffffffffffffffffffffffffffffffffff168173ffffffffffffffffffffffffffffffffffffffff16837f2f8788117e7eff1d82e926ec794901d17c78024a50270940304540a733656f0d60405160405180910390a45b5050565b6000620004f2836000018373ffffffffffffffffffffffffffffffffffffffff1660001b620004fa60201b60201c565b905092915050565b60006200050e83836200057460201b60201c565b620005695782600001829080600181540180825580915050600190039060005260206000200160009091909190915055826000018054905083600101600084815260200190815260200160002081905550600190506200056e565b600090505b92915050565b600080836001016000848152602001908152602001600020541415905092915050565b828054600181600116156101000203166002900490600052602060002090601f016020900481019282601f10620005da57805160ff19168380011785556200060b565b828001600101855582156200060b579182015b828111156200060a578251825591602001919060010190620005ed565b5b5090506200061a91906200061e565b5090565b5b80821115620006395760008160009055506001016200061f565b5090565b6000815190506200064e8162000769565b92915050565b600081519050620006658162000783565b92915050565b600080604083850312156200067f57600080fd5b60006200068f8582860162000654565b9250506020620006a2858286016200063d565b9150509250929050565b6000620006bb601c8362000710565b91507f4552433136353a20696e76616c696420696e74657266616365206964000000006000830152602082019050919050565b600060208201905081810360008301526200070981620006ac565b9050919050565b600082825260208201905092915050565b60006200072e8262000749565b9050919050565b6000620007428262000749565b9050919050565b600073ffffffffffffffffffffffffffffffffffffffff82169050919050565b620007748162000721565b81146200078057600080fd5b50565b6200078e8162000735565b81146200079a57600080fd5b50565b61580880620007ad6000396000f3fe6080604052600436106102255760003560e01c806378a8956711610123578063b88d4fde116100ab578063d547741f1161006f578063d547741f14610858578063def8f43914610881578063e640cf7d146108be578063e985e9c5146108e9578063f2fde38b1461092657610225565b8063b88d4fde1461075f578063c5f956af14610788578063c87b56dd146107b3578063ca15c873146107f0578063d53913931461082d57610225565b80639010d07c116100f25780639010d07c1461066657806391d14854146106a357806395d89b41146106e0578063a217fddf1461070b578063a22cb4651461073657610225565b806378a89567146105c957806384849ed3146105f45780638d859f3e146106105780638da5cb5b1461063b57610225565b806330cb0cee116101b15780634f6ccce7116101755780634f6ccce7146104d05780636352211e1461050d5780636c0360eb1461054a57806370a0823114610575578063715018a6146105b257610225565b806330cb0cee146103ef57806336568abe1461042c57806342842e0e1461045557806342966c681461047e5780634a65a575146104a757610225565b806318160ddd116101f857806318160ddd146102f857806323b872dd14610323578063248a9ca31461034c5780632f2ff15d146103895780632f745c59146103b257610225565b806301ffc9a71461022a57806306fdde0314610267578063081812fc14610292578063095ea7b3146102cf575b600080fd5b34801561023657600080fd5b50610251600480360381019061024c9190613f77565b61094f565b60405161025e9190614ff7565b60405180910390f35b34801561027357600080fd5b5061027c6109b7565b6040516102899190615072565b60405180910390f35b34801561029e57600080fd5b506102b960048036038101906102b491906140f6565b610a59565b6040516102c69190614f75565b60405180910390f35b3480156102db57600080fd5b506102f660048036038101906102f19190613e9a565b610ade565b005b34801561030457600080fd5b5061030d610bf6565b60405161031a9190615494565b60405180910390f35b34801561032f57600080fd5b5061034a60048036038101906103459190613d94565b610c07565b005b34801561035857600080fd5b50610373600480360381019061036e9190613ed6565b610c67565b6040516103809190615012565b60405180910390f35b34801561039557600080fd5b506103b060048036038101906103ab9190613eff565b610c86565b005b3480156103be57600080fd5b506103d960048036038101906103d49190613e9a565b610cf9565b6040516103e69190615494565b60405180910390f35b3480156103fb57600080fd5b5061041660048036038101906104119190613ff2565b610d54565b6040516104239190614f75565b60405180910390f35b34801561043857600080fd5b50610453600480360381019061044e9190613eff565b610e71565b005b34801561046157600080fd5b5061047c60048036038101906104779190613d94565b610ef4565b005b34801561048a57600080fd5b506104a560048036038101906104a091906140f6565b610f14565b005b3480156104b357600080fd5b506104ce60048036038101906104c991906140f6565b61103b565b005b3480156104dc57600080fd5b506104f760048036038101906104f291906140f6565b6110f8565b6040516105049190615494565b60405180910390f35b34801561051957600080fd5b50610534600480360381019061052f91906140f6565b61111b565b6040516105419190614f75565b60405180910390f35b34801561055657600080fd5b5061055f611152565b60405161056c9190615072565b60405180910390f35b34801561058157600080fd5b5061059c60048036038101906105979190613c6c565b6111f4565b6040516105a99190615494565b60405180910390f35b3480156105be57600080fd5b506105c76112b3565b005b3480156105d557600080fd5b506105de6113f0565b6040516105eb9190615494565b60405180910390f35b61060e60048036038101906106099190613c95565b611401565b005b34801561061c57600080fd5b5061062561170c565b6040516106329190615494565b60405180910390f35b34801561064757600080fd5b50610650611718565b60405161065d9190614f75565b60405180910390f35b34801561067257600080fd5b5061068d60048036038101906106889190613f3b565b611742565b60405161069a9190614f75565b60405180910390f35b3480156106af57600080fd5b506106ca60048036038101906106c59190613eff565b611773565b6040516106d79190614ff7565b60405180910390f35b3480156106ec57600080fd5b506106f56117a4565b6040516107029190615072565b60405180910390f35b34801561071757600080fd5b50610720611846565b60405161072d9190615012565b60405180910390f35b34801561074257600080fd5b5061075d60048036038101906107589190613e5e565b61184d565b005b34801561076b57600080fd5b5061078660048036038101906107819190613de3565b6119ce565b005b34801561079457600080fd5b5061079d611a30565b6040516107aa9190614f90565b60405180910390f35b3480156107bf57600080fd5b506107da60048036038101906107d591906140f6565b611a56565b6040516107e79190615072565b60405180910390f35b3480156107fc57600080fd5b5061081760048036038101906108129190613ed6565b611bd9565b6040516108249190615494565b60405180910390f35b34801561083957600080fd5b50610842611bff565b60405161084f9190615012565b60405180910390f35b34801561086457600080fd5b5061087f600480360381019061087a9190613eff565b611c23565b005b34801561088d57600080fd5b506108a860048036038101906108a391906140b5565b611c96565b6040516108b59190614ff7565b60405180910390f35b3480156108ca57600080fd5b506108d3611cba565b6040516108e09190615494565b60405180910390f35b3480156108f557600080fd5b50610910600480360381019061090b9190613d58565b611cc0565b60405161091d9190614ff7565b60405180910390f35b34801561093257600080fd5b5061094d60048036038101906109489190613c6c565b611dc2565b005b600060016000837bffffffffffffffffffffffffffffffffffffffffffffffffffffffff19167bffffffffffffffffffffffffffffffffffffffffffffffffffffffff1916815260200190815260200160002060009054906101000a900460ff169050919050565b606060078054600181600116156101000203166002900480601f016020809104026020016040519081016040528092919081815260200182805460018160011615610100020316600290048015610a4f5780601f10610a2457610100808354040283529160200191610a4f565b820191906000526020600020905b815481529060010190602001808311610a3257829003601f168201915b5050505050905090565b6000610a6482611f9e565b610aa3576040517f08c379a0000000000000000000000000000000000000000000000000000000008152600401610a9a906152d4565b60405180910390fd5b6005600083815260200190815260200160002060009054906101000a900473ffffffffffffffffffffffffffffffffffffffff169050919050565b6000610ae98261111b565b90508073ffffffffffffffffffffffffffffffffffffffff168373ffffffffffffffffffffffffffffffffffffffff161415610b5a576040517f08c379a0000000000000000000000000000000000000000000000000000000008152600401610b5190615394565b60405180910390fd5b8073ffffffffffffffffffffffffffffffffffffffff16610b79611fbb565b73ffffffffffffffffffffffffffffffffffffffff161480610ba85750610ba781610ba2611fbb565b611fc3565b5b610be7576040517f08c379a0000000000000000000000000000000000000000000000000000000008152600401610bde90615254565b60405180910390fd5b610bf18383612057565b505050565b6000610c026003612110565b905090565b610c18610c12611fbb565b82612125565b610c57576040517f08c379a0000000000000000000000000000000000000000000000000000000008152600401610c4e906153b4565b60405180910390fd5b610c62838383612203565b505050565b6000806000838152602001908152602001600020600201549050919050565b610cac60008084815260200190815260200160002060020154610ca7611fbb565b611773565b610ceb576040517f08c379a0000000000000000000000000000000000000000000000000000000008152600401610ce2906150b4565b60405180910390fd5b610cf5828261241a565b5050565b6000610d4c82600260008673ffffffffffffffffffffffffffffffffffffffff1673ffffffffffffffffffffffffffffffffffffffff1681526020019081526020016000206124ad90919063ffffffff16565b905092915050565b6000601b8460ff161015610d6957601b840193505b600030905060606040518060400160405280601c81526020017f19457468657265756d205369676e6564204d6573736167653a0a3332000000008152509050600082888d8d8d8d604051602001610dc596959493929190614ec8565b60405160208183030381529060405280519060200120905060608282604051602001610df2929190614f29565b60405160208183030381529060405290506000818051906020012090506001818a8a8a60405160008152602001604052604051610e32949392919061502d565b6020604051602081039080840390855afa158015610e54573d6000803e3d6000fd5b505050602060405103519550505050505098975050505050505050565b610e79611fbb565b73ffffffffffffffffffffffffffffffffffffffff168173ffffffffffffffffffffffffffffffffffffffff1614610ee6576040517f08c379a0000000000000000000000000000000000000000000000000000000008152600401610edd90615454565b60405180910390fd5b610ef082826124c7565b5050565b610f0f838383604051806020016040528060008152506119ce565b505050565b610f25610f1f611fbb565b82612125565b610f64576040517f08c379a0000000000000000000000000000000000000000000000000000000008152600401610f5b90615414565b60405180910390fd5b610f7881601361255a90919063ffffffff16565b610fb7576040517f08c379a0000000000000000000000000000000000000000000000000000000008152600401610fae90615374565b60405180910390fd5b610fde610fce82601361257490919063ffffffff16565b601161258e90919063ffffffff16565b61101d576040517f08c379a000000000000000000000000000000000000000000000000000000000815260040161101490615374565b60405180910390fd5b611026816125a5565b61102f816126df565b61103857600080fd5b50565b611043611fbb565b73ffffffffffffffffffffffffffffffffffffffff16611061611718565b73ffffffffffffffffffffffffffffffffffffffff16146110b7576040517f08c379a00000000000000000000000000000000000000000000000000000000081526004016110ae90615314565b60405180910390fd5b6110e87f9f2df0fed2c77648de5860a4cc508cd0818c85b8b8a1ab4ceeef8d981c8956a66110e3611fbb565b611773565b6110ee57fe5b80600e8190555050565b60008061110f83600361275e90919063ffffffff16565b50905080915050919050565b600061114b826040518060600160405280602981526020016157aa60299139600361278a9092919063ffffffff16565b9050919050565b6060600a8054600181600116156101000203166002900480601f0160208091040260200160405190810160405280929190818152602001828054600181600116156101000203166002900480156111ea5780601f106111bf576101008083540402835291602001916111ea565b820191906000526020600020905b8154815290600101906020018083116111cd57829003601f168201915b5050505050905090565b60008073ffffffffffffffffffffffffffffffffffffffff168273ffffffffffffffffffffffffffffffffffffffff161415611265576040517f08c379a000000000000000000000000000000000000000000000000000000000815260040161125c90615274565b60405180910390fd5b6112ac600260008473ffffffffffffffffffffffffffffffffffffffff1673ffffffffffffffffffffffffffffffffffffffff1681526020019081526020016000206127a9565b9050919050565b6112bb611fbb565b73ffffffffffffffffffffffffffffffffffffffff166112d9611718565b73ffffffffffffffffffffffffffffffffffffffff161461132f576040517f08c379a000000000000000000000000000000000000000000000000000000000815260040161132690615314565b60405180910390fd5b600073ffffffffffffffffffffffffffffffffffffffff16600b60009054906101000a900473ffffffffffffffffffffffffffffffffffffffff1673ffffffffffffffffffffffffffffffffffffffff167f8be0079c531659141344cd1fd0a4f28419497f9722a3daafe3b4186f6b6457e060405160405180910390a36000600b60006101000a81548173ffffffffffffffffffffffffffffffffffffffff021916908373ffffffffffffffffffffffffffffffffffffffff160217905550565b60006113fc60106127be565b905090565b611411828286868c8c8c8c6127cc565b611450576040517f08c379a000000000000000000000000000000000000000000000000000000000815260040161144790615474565b60405180910390fd5b600e5461145d60106127be565b1061149d576040517f08c379a000000000000000000000000000000000000000000000000000000000815260040161149490615234565b60405180910390fd5b670214e8348c4f00003410156114e8576040517f08c379a00000000000000000000000000000000000000000000000000000000081526004016114df90615434565b60405180910390fd5b61153582828080601f016020809104026020016040519081016040528093929190818152602001838380828437600081840152601f19601f82011690508083019250505050505050611c96565b15611575576040517f08c379a000000000000000000000000000000000000000000000000000000000815260040161156c906150f4565b60405180910390fd5b600f60009054906101000a900473ffffffffffffffffffffffffffffffffffffffff1673ffffffffffffffffffffffffffffffffffffffff166108fc670214e8348c4f00009081150290604051600060405180830381858888f193505050501580156115e5573d6000803e3d6000fd5b508773ffffffffffffffffffffffffffffffffffffffff166108fc61161b670214e8348c4f00003461281590919063ffffffff16565b9081150290604051600060405180830381858888f19350505050158015611646573d6000803e3d6000fd5b5061165c61165460106127be565b898686612865565b6116b382828080601f016020809104026020016040519081016040528093929190818152602001838380828437600081840152601f19601f820116905080830192505050505050506116ae60106127be565b6128c3565b156116c7576116c2601061290d565b611702565b6040517f08c379a00000000000000000000000000000000000000000000000000000000081526004016116f9906150d4565b60405180910390fd5b5050505050505050565b670214e8348c4f000081565b6000600b60009054906101000a900473ffffffffffffffffffffffffffffffffffffffff16905090565b600061176b8260008086815260200190815260200160002060000161292390919063ffffffff16565b905092915050565b600061179c8260008086815260200190815260200160002060000161293d90919063ffffffff16565b905092915050565b606060088054600181600116156101000203166002900480601f01602080910402602001604051908101604052809291908181526020018280546001816001161561010002031660029004801561183c5780601f106118115761010080835404028352916020019161183c565b820191906000526020600020905b81548152906001019060200180831161181f57829003601f168201915b5050505050905090565b6000801b81565b611855611fbb565b73ffffffffffffffffffffffffffffffffffffffff168273ffffffffffffffffffffffffffffffffffffffff1614156118c3576040517f08c379a00000000000000000000000000000000000000000000000000000000081526004016118ba90615194565b60405180910390fd5b80600660006118d0611fbb565b73ffffffffffffffffffffffffffffffffffffffff1673ffffffffffffffffffffffffffffffffffffffff16815260200190815260200160002060008473ffffffffffffffffffffffffffffffffffffffff1673ffffffffffffffffffffffffffffffffffffffff16815260200190815260200160002060006101000a81548160ff0219169083151502179055508173ffffffffffffffffffffffffffffffffffffffff1661197d611fbb565b73ffffffffffffffffffffffffffffffffffffffff167f17307eab39ab6107e8899845ad3d59bd9653f200f220920489ca2b5937696c31836040516119c29190614ff7565b60405180910390a35050565b6119df6119d9611fbb565b83612125565b611a1e576040517f08c379a0000000000000000000000000000000000000000000000000000000008152600401611a15906153b4565b60405180910390fd5b611a2a8484848461296d565b50505050565b600f60009054906101000a900473ffffffffffffffffffffffffffffffffffffffff1681565b6060611a6182611f9e565b611aa0576040517f08c379a0000000000000000000000000000000000000000000000000000000008152600401611a9790615354565b60405180910390fd5b6060600960008481526020019081526020016000208054600181600116156101000203166002900480601f016020809104026020016040519081016040528092919081815260200182805460018160011615610100020316600290048015611b495780601f10611b1e57610100808354040283529160200191611b49565b820191906000526020600020905b815481529060010190602001808311611b2c57829003601f168201915b505050505090506060611b5a611152565b9050600081511415611b70578192505050611bd4565b600082511115611ba5578082604051602001611b8d929190614f51565b60405160208183030381529060405292505050611bd4565b80611baf856129c9565b604051602001611bc0929190614f51565b604051602081830303815290604052925050505b919050565b6000611bf8600080848152602001908152602001600020600001612b10565b9050919050565b7f9f2df0fed2c77648de5860a4cc508cd0818c85b8b8a1ab4ceeef8d981c8956a681565b611c4960008084815260200190815260200160002060020154611c44611fbb565b611773565b611c88576040517f08c379a0000000000000000000000000000000000000000000000000000000008152600401611c7f90615214565b60405180910390fd5b611c9282826124c7565b5050565b6000611cb38280519060200120601161258e90919063ffffffff16565b9050919050565b600e5481565b600080600c60009054906101000a900473ffffffffffffffffffffffffffffffffffffffff1690508273ffffffffffffffffffffffffffffffffffffffff168173ffffffffffffffffffffffffffffffffffffffff1663c4552791866040518263ffffffff1660e01b8152600401611d389190614f75565b60206040518083038186803b158015611d5057600080fd5b505afa158015611d64573d6000803e3d6000fd5b505050506040513d601f19601f82011682018060405250810190611d889190613fc9565b73ffffffffffffffffffffffffffffffffffffffff161415611dae576001915050611dbc565b611db88484611fc3565b9150505b92915050565b611dca611fbb565b73ffffffffffffffffffffffffffffffffffffffff16611de8611718565b73ffffffffffffffffffffffffffffffffffffffff1614611e3e576040517f08c379a0000000000000000000000000000000000000000000000000000000008152600401611e3590615314565b60405180910390fd5b600073ffffffffffffffffffffffffffffffffffffffff168173ffffffffffffffffffffffffffffffffffffffff161415611eae576040517f08c379a0000000000000000000000000000000000000000000000000000000008152600401611ea590615134565b60405180910390fd5b8073ffffffffffffffffffffffffffffffffffffffff16600b60009054906101000a900473ffffffffffffffffffffffffffffffffffffffff1673ffffffffffffffffffffffffffffffffffffffff167f8be0079c531659141344cd1fd0a4f28419497f9722a3daafe3b4186f6b6457e060405160405180910390a380600b60006101000a81548173ffffffffffffffffffffffffffffffffffffffff021916908373ffffffffffffffffffffffffffffffffffffffff16021790555050565b6000611f96836000018373ffffffffffffffffffffffffffffffffffffffff1660001b612b25565b905092915050565b6000611fb4826003612b9590919063ffffffff16565b9050919050565b600033905090565b6000600660008473ffffffffffffffffffffffffffffffffffffffff1673ffffffffffffffffffffffffffffffffffffffff16815260200190815260200160002060008373ffffffffffffffffffffffffffffffffffffffff1673ffffffffffffffffffffffffffffffffffffffff16815260200190815260200160002060009054906101000a900460ff16905092915050565b816005600083815260200190815260200160002060006101000a81548173ffffffffffffffffffffffffffffffffffffffff021916908373ffffffffffffffffffffffffffffffffffffffff160217905550808273ffffffffffffffffffffffffffffffffffffffff166120ca8361111b565b73ffffffffffffffffffffffffffffffffffffffff167f8c5be1e5ebec7d5bd14f71427d1e84f3dd0314c0f7b2291e5b200ac8c7c3b92560405160405180910390a45050565b600061211e82600001612baf565b9050919050565b600061213082611f9e565b61216f576040517f08c379a0000000000000000000000000000000000000000000000000000000008152600401612166906151f4565b60405180910390fd5b600061217a8361111b565b90508073ffffffffffffffffffffffffffffffffffffffff168473ffffffffffffffffffffffffffffffffffffffff1614806121e957508373ffffffffffffffffffffffffffffffffffffffff166121d184610a59565b73ffffffffffffffffffffffffffffffffffffffff16145b806121fa57506121f98185611fc3565b5b91505092915050565b8273ffffffffffffffffffffffffffffffffffffffff166122238261111b565b73ffffffffffffffffffffffffffffffffffffffff1614612279576040517f08c379a000000000000000000000000000000000000000000000000000000000815260040161227090615334565b60405180910390fd5b600073ffffffffffffffffffffffffffffffffffffffff168273ffffffffffffffffffffffffffffffffffffffff1614156122e9576040517f08c379a00000000000000000000000000000000000000000000000000000000081526004016122e090615174565b60405180910390fd5b6122f4838383612bc0565b6122ff600082612057565b61235081600260008673ffffffffffffffffffffffffffffffffffffffff1673ffffffffffffffffffffffffffffffffffffffff168152602001908152602001600020612bc590919063ffffffff16565b506123a281600260008573ffffffffffffffffffffffffffffffffffffffff1673ffffffffffffffffffffffffffffffffffffffff168152602001908152602001600020612bdf90919063ffffffff16565b506123b981836003612bf99092919063ffffffff16565b50808273ffffffffffffffffffffffffffffffffffffffff168473ffffffffffffffffffffffffffffffffffffffff167fddf252ad1be2c89b69c2b068fc378daa952ba7f163c4a11628f55a4df523b3ef60405160405180910390a4505050565b61244181600080858152602001908152602001600020600001611f6e90919063ffffffff16565b156124a95761244e611fbb565b73ffffffffffffffffffffffffffffffffffffffff168173ffffffffffffffffffffffffffffffffffffffff16837f2f8788117e7eff1d82e926ec794901d17c78024a50270940304540a733656f0d60405160405180910390a45b5050565b60006124bc8360000183612c2e565b60001c905092915050565b6124ee81600080858152602001908152602001600020600001612c9b90919063ffffffff16565b15612556576124fb611fbb565b73ffffffffffffffffffffffffffffffffffffffff168173ffffffffffffffffffffffffffffffffffffffff16837ff6391f5c32d9c69d2a47ea670b442974b53935d1edc7fd64eb21e047a839171b60405160405180910390a45b5050565b600061256c836000018360001b612ccb565b905092915050565b6000612586836000018360001b612cee565b905092915050565b600061259d8360000183612d7a565b905092915050565b60006125b08261111b565b90506125be81600084612bc0565b6125c9600083612057565b600060096000848152602001908152602001600020805460018160011615610100020316600290049050146126185760096000838152602001908152602001600020600061261791906139d8565b5b61266982600260008473ffffffffffffffffffffffffffffffffffffffff1673ffffffffffffffffffffffffffffffffffffffff168152602001908152602001600020612bc590919063ffffffff16565b5061267e826003612d9d90919063ffffffff16565b5081600073ffffffffffffffffffffffffffffffffffffffff168273ffffffffffffffffffffffffffffffffffffffff167fddf252ad1be2c89b69c2b068fc378daa952ba7f163c4a11628f55a4df523b3ef60405160405180910390a45050565b60006126f582601361255a90919063ffffffff16565b6127025760009050612759565b600061271883601361257490919063ffffffff16565b905061272381612db7565b612731576000915050612759565b612745836013612dd490919063ffffffff16565b612753576000915050612759565b60019150505b919050565b6000806000806127718660000186612dee565b915091508160001c8160001c9350935050509250929050565b600061279d846000018460001b84612e71565b60001c90509392505050565b60006127b782600001612f02565b9050919050565b600081600001549050919050565b60006128077f9f2df0fed2c77648de5860a4cc508cd0818c85b8b8a1ab4ceeef8d981c8956a66128028b8b8b8b8b8b8b8b610d54565b611773565b905098975050505050505050565b60008282111561285a576040517f08c379a0000000000000000000000000000000000000000000000000000000008152600401612851906151b4565b60405180910390fd5b818303905092915050565b61286f8385612f13565b6128bd8483838080601f016020809104026020016040519081016040528093929190818152602001838380828437600081840152601f19601f82011690508083019250505050505050612f31565b50505050565b60006128e083805190602001206011612fa590919063ffffffff16565b801561290557506129048284805190602001206013612fbc9092919063ffffffff16565b5b905092915050565b6001816000016000828254019250508190555050565b60006129328360000183612c2e565b60001c905092915050565b6000612965836000018373ffffffffffffffffffffffffffffffffffffffff1660001b612d7a565b905092915050565b612978848484612203565b61298484848484612fd8565b6129c3576040517f08c379a00000000000000000000000000000000000000000000000000000000081526004016129ba90615114565b60405180910390fd5b50505050565b60606000821415612a11576040518060400160405280600181526020017f30000000000000000000000000000000000000000000000000000000000000008152509050612b0b565b600082905060005b60008214612a3b578080600101915050600a8281612a3357fe5b049150612a19565b60608167ffffffffffffffff81118015612a5457600080fd5b506040519080825280601f01601f191660200182016040528015612a875781602001600182028036833780820191505090505b50905060006001830390508593505b60008414612b0357600a8481612aa857fe5b0660300160f81b82828060019003935081518110612ac257fe5b60200101907effffffffffffffffffffffffffffffffffffffffffffffffffffffffffffff1916908160001a905350600a8481612afb57fe5b049350612a96565b819450505050505b919050565b6000612b1e82600001612f02565b9050919050565b6000612b318383612d7a565b612b8a578260000182908060018154018082558091505060019003906000526020600020016000909190919091505582600001805490508360010160008481526020019081526020016000208190555060019050612b8f565b600090505b92915050565b6000612ba7836000018360001b61313c565b905092915050565b600081600001805490509050919050565b505050565b6000612bd7836000018360001b61315f565b905092915050565b6000612bf1836000018360001b612b25565b905092915050565b6000612c25846000018460001b8473ffffffffffffffffffffffffffffffffffffffff1660001b613247565b90509392505050565b600081836000018054905011612c79576040517f08c379a0000000000000000000000000000000000000000000000000000000008152600401612c7090615094565b60405180910390fd5b826000018281548110612c8857fe5b9060005260206000200154905092915050565b6000612cc3836000018373ffffffffffffffffffffffffffffffffffffffff1660001b61315f565b905092915050565b600080836001016000848152602001908152602001600020541415905092915050565b6000808360010160008481526020019081526020016000205490506000811415612d4d576040517f08c379a0000000000000000000000000000000000000000000000000000000008152600401612d44906153f4565b60405180910390fd5b836000016001820381548110612d5f57fe5b90600052602060002090600202016001015491505092915050565b600080836001016000848152602001908152602001600020541415905092915050565b6000612daf836000018360001b613323565b905092915050565b6000612dcd82601161343c90919063ffffffff16565b9050919050565b6000612de6836000018360001b613453565b905092915050565b60008082846000018054905011612e3a576040517f08c379a0000000000000000000000000000000000000000000000000000000008152600401612e3190615294565b60405180910390fd5b6000846000018481548110612e4b57fe5b906000526020600020906002020190508060000154816001015492509250509250929050565b60008084600101600085815260200190815260200160002054905060008114158390612ed3576040517f08c379a0000000000000000000000000000000000000000000000000000000008152600401612eca9190615072565b60405180910390fd5b50846000016001820381548110612ee657fe5b9060005260206000209060020201600101549150509392505050565b600081600001805490509050919050565b612f2d82826040518060200160405280600081525061356c565b5050565b612f3a82611f9e565b612f79576040517f08c379a0000000000000000000000000000000000000000000000000000000008152600401612f70906152f4565b60405180910390fd5b80600960008481526020019081526020016000209080519060200190612fa0929190613a20565b505050565b6000612fb48360000183612b25565b905092915050565b6000612fcf846000018460001b846135c7565b90509392505050565b6000612ff98473ffffffffffffffffffffffffffffffffffffffff166136a3565b6130065760019050613134565b60606130cd63150b7a0260e01b61301b611fbb565b8887876040516024016130319493929190614fab565b604051602081830303815290604052907bffffffffffffffffffffffffffffffffffffffffffffffffffffffff19166020820180517bffffffffffffffffffffffffffffffffffffffffffffffffffffffff8381831617835250505050604051806060016040528060328152602001615778603291398773ffffffffffffffffffffffffffffffffffffffff166136b69092919063ffffffff16565b90506000818060200190518101906130e59190613fa0565b905063150b7a0260e01b7bffffffffffffffffffffffffffffffffffffffffffffffffffffffff1916817bffffffffffffffffffffffffffffffffffffffffffffffffffffffff191614925050505b949350505050565b600080836001016000848152602001908152602001600020541415905092915050565b6000808360010160008481526020019081526020016000205490506000811461323b57600060018203905060006001866000018054905003905060008660000182815481106131aa57fe5b90600052602060002001549050808760000184815481106131c757fe5b90600052602060002001819055506001830187600101600083815260200190815260200160002081905550866000018054806131ff57fe5b60019003818190600052602060002001600090559055866001016000878152602001908152602001600020600090556001945050505050613241565b60009150505b92915050565b60008084600101600085815260200190815260200160002054905060008114156132ee5784600001604051806040016040528086815260200185815250908060018154018082558091505060019003906000526020600020906002020160009091909190915060008201518160000155602082015181600101555050846000018054905085600101600086815260200190815260200160002081905550600191505061331c565b8285600001600183038154811061330157fe5b90600052602060002090600202016001018190555060009150505b9392505050565b60008083600101600084815260200190815260200160002054905060008114613430576000600182039050600060018660000180549050039050600086600001828154811061336e57fe5b906000526020600020906002020190508087600001848154811061338e57fe5b90600052602060002090600202016000820154816000015560018201548160010155905050600183018760010160008360000154815260200190815260200160002081905550866000018054806133e157fe5b6001900381819060005260206000209060020201600080820160009055600182016000905550509055866001016000878152602001908152602001600020600090556001945050505050613436565b60009150505b92915050565b600061344b836000018361315f565b905092915050565b60008083600101600084815260200190815260200160002054905060008114613560576000600182039050600060018660000180549050039050600086600001828154811061349e57fe5b90600052602060002090600202019050808760000184815481106134be57fe5b906000526020600020906002020160008201548160000155600182015481600101559050506001830187600101600083600001548152602001908152602001600020819055508660000180548061351157fe5b6001900381819060005260206000209060020201600080820160009055600182016000905550509055866001016000878152602001908152602001600020600090556001945050505050613566565b60009150505b92915050565b61357683836136ce565b6135836000848484612fd8565b6135c2576040517f08c379a00000000000000000000000000000000000000000000000000000000081526004016135b990615114565b60405180910390fd5b505050565b600080846001016000858152602001908152602001600020549050600081141561366e5784600001604051806040016040528086815260200185815250908060018154018082558091505060019003906000526020600020906002020160009091909190915060008201518160000155602082015181600101555050846000018054905085600101600086815260200190815260200160002081905550600191505061369c565b8285600001600183038154811061368157fe5b90600052602060002090600202016001018190555060009150505b9392505050565b600080823b905060008111915050919050565b60606136c5848460008561385c565b90509392505050565b600073ffffffffffffffffffffffffffffffffffffffff168273ffffffffffffffffffffffffffffffffffffffff16141561373e576040517f08c379a0000000000000000000000000000000000000000000000000000000008152600401613735906152b4565b60405180910390fd5b61374781611f9e565b15613787576040517f08c379a000000000000000000000000000000000000000000000000000000000815260040161377e90615154565b60405180910390fd5b61379360008383612bc0565b6137e481600260008573ffffffffffffffffffffffffffffffffffffffff1673ffffffffffffffffffffffffffffffffffffffff168152602001908152602001600020612bdf90919063ffffffff16565b506137fb81836003612bf99092919063ffffffff16565b50808273ffffffffffffffffffffffffffffffffffffffff16600073ffffffffffffffffffffffffffffffffffffffff167fddf252ad1be2c89b69c2b068fc378daa952ba7f163c4a11628f55a4df523b3ef60405160405180910390a45050565b6060824710156138a1576040517f08c379a0000000000000000000000000000000000000000000000000000000008152600401613898906151d4565b60405180910390fd5b6138aa856136a3565b6138e9576040517f08c379a00000000000000000000000000000000000000000000000000000000081526004016138e0906153d4565b60405180910390fd5b600060608673ffffffffffffffffffffffffffffffffffffffff1685876040516139139190614f12565b60006040518083038185875af1925050503d8060008114613950576040519150601f19603f3d011682016040523d82523d6000602084013e613955565b606091505b5091509150613965828286613971565b92505050949350505050565b60608315613981578290506139d1565b6000835111156139945782518084602001fd5b816040517f08c379a00000000000000000000000000000000000000000000000000000000081526004016139c89190615072565b60405180910390fd5b9392505050565b50805460018160011615610100020316600290046000825580601f106139fe5750613a1d565b601f016020900490600052602060002090810190613a1c9190613aa0565b5b50565b828054600181600116156101000203166002900490600052602060002090601f016020900481019282601f10613a6157805160ff1916838001178555613a8f565b82800160010185558215613a8f579182015b82811115613a8e578251825591602001919060010190613a73565b5b509050613a9c9190613aa0565b5090565b5b80821115613ab9576000816000905550600101613aa1565b5090565b600081359050613acc816156bf565b92915050565b600081359050613ae1816156d6565b92915050565b600081359050613af6816156ed565b92915050565b600081359050613b0b81615704565b92915050565b600081359050613b208161571b565b92915050565b600081519050613b358161571b565b92915050565b600082601f830112613b4c57600080fd5b8135613b5f613b5a826154dc565b6154af565b91508082526020830160208301858383011115613b7b57600080fd5b613b86838284615631565b50505092915050565b600081519050613b9e81615732565b92915050565b60008083601f840112613bb657600080fd5b8235905067ffffffffffffffff811115613bcf57600080fd5b602083019150836001820283011115613be757600080fd5b9250929050565b600082601f830112613bff57600080fd5b8135613c12613c0d82615508565b6154af565b91508082526020830160208301858383011115613c2e57600080fd5b613c39838284615631565b50505092915050565b600081359050613c5181615749565b92915050565b600081359050613c6681615760565b92915050565b600060208284031215613c7e57600080fd5b6000613c8c84828501613abd565b91505092915050565b60008060008060008060008060c0898b031215613cb157600080fd5b6000613cbf8b828c01613ad2565b9850506020613cd08b828c01613c57565b9750506040613ce18b828c01613afc565b9650506060613cf28b828c01613afc565b955050608089013567ffffffffffffffff811115613d0f57600080fd5b613d1b8b828c01613ba4565b945094505060a089013567ffffffffffffffff811115613d3a57600080fd5b613d468b828c01613ba4565b92509250509295985092959890939650565b60008060408385031215613d6b57600080fd5b6000613d7985828601613abd565b9250506020613d8a85828601613abd565b9150509250929050565b600080600060608486031215613da957600080fd5b6000613db786828701613abd565b9350506020613dc886828701613abd565b9250506040613dd986828701613c42565b9150509250925092565b60008060008060808587031215613df957600080fd5b6000613e0787828801613abd565b9450506020613e1887828801613abd565b9350506040613e2987828801613c42565b925050606085013567ffffffffffffffff811115613e4657600080fd5b613e5287828801613b3b565b91505092959194509250565b60008060408385031215613e7157600080fd5b6000613e7f85828601613abd565b9250506020613e9085828601613ae7565b9150509250929050565b60008060408385031215613ead57600080fd5b6000613ebb85828601613abd565b9250506020613ecc85828601613c42565b9150509250929050565b600060208284031215613ee857600080fd5b6000613ef684828501613afc565b91505092915050565b60008060408385031215613f1257600080fd5b6000613f2085828601613afc565b9250506020613f3185828601613abd565b9150509250929050565b60008060408385031215613f4e57600080fd5b6000613f5c85828601613afc565b9250506020613f6d85828601613c42565b9150509250929050565b600060208284031215613f8957600080fd5b6000613f9784828501613b11565b91505092915050565b600060208284031215613fb257600080fd5b6000613fc084828501613b26565b91505092915050565b600060208284031215613fdb57600080fd5b6000613fe984828501613b8f565b91505092915050565b60008060008060008060008060c0898b03121561400e57600080fd5b600089013567ffffffffffffffff81111561402857600080fd5b6140348b828c01613ba4565b9850985050602089013567ffffffffffffffff81111561405357600080fd5b61405f8b828c01613ba4565b965096505060406140728b828c01613abd565b94505060606140838b828c01613c57565b93505060806140948b828c01613afc565b92505060a06140a58b828c01613afc565b9150509295985092959890939650565b6000602082840312156140c757600080fd5b600082013567ffffffffffffffff8111156140e157600080fd5b6140ed84828501613bee565b91505092915050565b60006020828403121561410857600080fd5b600061411684828501613c42565b91505092915050565b61412881615594565b82525050565b61413781615582565b82525050565b61414e61414982615582565b615673565b82525050565b61415d816155a6565b82525050565b61416c816155b2565b82525050565b61418361417e826155b2565b615685565b82525050565b600061419482615534565b61419e818561554a565b93506141ae818560208601615640565b6141b7816156a1565b840191505092915050565b60006141cd82615534565b6141d7818561555b565b93506141e7818560208601615640565b80840191505092915050565b60006141ff8385615577565b935061420c838584615631565b82840190509392505050565b60006142238261553f565b61422d8185615566565b935061423d818560208601615640565b614246816156a1565b840191505092915050565b600061425c8261553f565b6142668185615577565b9350614276818560208601615640565b80840191505092915050565b600061428f602283615566565b91507f456e756d657261626c655365743a20696e646578206f7574206f6620626f756e60008301527f64730000000000000000000000000000000000000000000000000000000000006020830152604082019050919050565b60006142f5602f83615566565b91507f416363657373436f6e74726f6c3a2073656e646572206d75737420626520616e60008301527f2061646d696e20746f206772616e7400000000000000000000000000000000006020830152604082019050919050565b600061435b603283615566565b91507f4e65676174697665456e74726f70793a20556e61626c6520746f20616464207360008301527f65656420746f206d6170206f72207365742100000000000000000000000000006020830152604082019050919050565b60006143c1604e83615566565b91507f4e65676174697665456e74726f70793a20536565642068617320616c7265616460008301527f79206265656e20636c61696d6564e28093686f772064696420796f75206d616b60208301527f652069742074686973206661723f0000000000000000000000000000000000006040830152606082019050919050565b600061444d603283615566565b91507f4552433732313a207472616e7366657220746f206e6f6e20455243373231526560008301527f63656976657220696d706c656d656e74657200000000000000000000000000006020830152604082019050919050565b60006144b3602683615566565b91507f4f776e61626c653a206e6577206f776e657220697320746865207a65726f206160008301527f64647265737300000000000000000000000000000000000000000000000000006020830152604082019050919050565b6000614519601c83615566565b91507f4552433732313a20746f6b656e20616c7265616479206d696e746564000000006000830152602082019050919050565b6000614559602483615566565b91507f4552433732313a207472616e7366657220746f20746865207a65726f2061646460008301527f72657373000000000000000000000000000000000000000000000000000000006020830152604082019050919050565b60006145bf601983615566565b91507f4552433732313a20617070726f766520746f2063616c6c6572000000000000006000830152602082019050919050565b60006145ff601e83615566565b91507f536166654d6174683a207375627472616374696f6e206f766572666c6f7700006000830152602082019050919050565b600061463f602683615566565b91507f416464726573733a20696e73756666696369656e742062616c616e636520666f60008301527f722063616c6c00000000000000000000000000000000000000000000000000006020830152604082019050919050565b60006146a5602c83615566565b91507f4552433732313a206f70657261746f7220717565727920666f72206e6f6e657860008301527f697374656e7420746f6b656e00000000000000000000000000000000000000006020830152604082019050919050565b600061470b603083615566565b91507f416363657373436f6e74726f6c3a2073656e646572206d75737420626520616e60008301527f2061646d696e20746f207265766f6b65000000000000000000000000000000006020830152604082019050919050565b6000614771603b83615566565b91507f4e65676174697665456e74726f70793a20416c6c204e4654732068617665206260008301527f65656e20636c61696d656420666f7220746869732073657269657300000000006020830152604082019050919050565b60006147d7603883615566565b91507f4552433732313a20617070726f76652063616c6c6572206973206e6f74206f7760008301527f6e6572206e6f7220617070726f76656420666f7220616c6c00000000000000006020830152604082019050919050565b600061483d602a83615566565b91507f4552433732313a2062616c616e636520717565727920666f7220746865207a6560008301527f726f2061646472657373000000000000000000000000000000000000000000006020830152604082019050919050565b60006148a3602283615566565b91507f456e756d657261626c654d61703a20696e646578206f7574206f6620626f756e60008301527f64730000000000000000000000000000000000000000000000000000000000006020830152604082019050919050565b6000614909602083615566565b91507f4552433732313a206d696e7420746f20746865207a65726f20616464726573736000830152602082019050919050565b6000614949602c83615566565b91507f4552433732313a20617070726f76656420717565727920666f72206e6f6e657860008301527f697374656e7420746f6b656e00000000000000000000000000000000000000006020830152604082019050919050565b60006149af602c83615566565b91507f4552433732314d657461646174613a2055524920736574206f66206e6f6e657860008301527f697374656e7420746f6b656e00000000000000000000000000000000000000006020830152604082019050919050565b6000614a15602083615566565b91507f4f776e61626c653a2063616c6c6572206973206e6f7420746865206f776e65726000830152602082019050919050565b6000614a55602983615566565b91507f4552433732313a207472616e73666572206f6620746f6b656e2074686174206960008301527f73206e6f74206f776e00000000000000000000000000000000000000000000006020830152604082019050919050565b6000614abb602f83615566565b91507f4552433732314d657461646174613a2055524920717565727920666f72206e6f60008301527f6e6578697374656e7420746f6b656e00000000000000000000000000000000006020830152604082019050919050565b6000614b21604a83615566565b91507f4e65676174697665456e74726f70793a20546f6b656e204944206e6f7420666f60008301527f756e6420696e2073746f7261676520e280932041726520796f7520737572652060208301527f6974206578697374733f000000000000000000000000000000000000000000006040830152606082019050919050565b6000614bad602183615566565b91507f4552433732313a20617070726f76616c20746f2063757272656e74206f776e6560008301527f72000000000000000000000000000000000000000000000000000000000000006020830152604082019050919050565b6000614c13603183615566565b91507f4552433732313a207472616e736665722063616c6c6572206973206e6f74206f60008301527f776e6572206e6f7220617070726f7665640000000000000000000000000000006020830152604082019050919050565b6000614c79601d83615566565b91507f416464726573733a2063616c6c20746f206e6f6e2d636f6e74726163740000006000830152602082019050919050565b6000614cb9601e83615566565b91507f456e756d657261626c654d61703a206e6f6e6578697374656e74206b657900006000830152602082019050919050565b6000614cf9603083615566565b91507f4552433732314275726e61626c653a2063616c6c6572206973206e6f74206f7760008301527f6e6572206e6f7220617070726f766564000000000000000000000000000000006020830152604082019050919050565b6000614d5f604283615566565b91507f4e65676174697665456e74726f70793a20496e73756666696369656e7420667560008301527f6e647320746f206d696e742061204e6567617469766520456e74726f7079204e60208301527f46540000000000000000000000000000000000000000000000000000000000006040830152606082019050919050565b6000614deb602f83615566565b91507f416363657373436f6e74726f6c3a2063616e206f6e6c792072656e6f756e636560008301527f20726f6c657320666f722073656c6600000000000000000000000000000000006020830152604082019050919050565b6000614e51602e83615566565b91507f4e6567617469766520456e74726f70793a206d696e746572206d75737420736960008301527f676e2055524920616e64204944210000000000000000000000000000000000006020830152604082019050919050565b614eb38161561a565b82525050565b614ec281615624565b82525050565b6000614ed4828961413d565b601482019150614ee4828861413d565b601482019150614ef58286886141f3565b9150614f028284866141f3565b9150819050979650505050505050565b6000614f1e82846141c2565b915081905092915050565b6000614f3582856141c2565b9150614f418284614172565b6020820191508190509392505050565b6000614f5d8285614251565b9150614f698284614251565b91508190509392505050565b6000602082019050614f8a600083018461412e565b92915050565b6000602082019050614fa5600083018461411f565b92915050565b6000608082019050614fc0600083018761411f565b614fcd602083018661412e565b614fda6040830185614eaa565b8181036060830152614fec8184614189565b905095945050505050565b600060208201905061500c6000830184614154565b92915050565b60006020820190506150276000830184614163565b92915050565b60006080820190506150426000830187614163565b61504f6020830186614eb9565b61505c6040830185614163565b6150696060830184614163565b95945050505050565b6000602082019050818103600083015261508c8184614218565b905092915050565b600060208201905081810360008301526150ad81614282565b9050919050565b600060208201905081810360008301526150cd816142e8565b9050919050565b600060208201905081810360008301526150ed8161434e565b9050919050565b6000602082019050818103600083015261510d816143b4565b9050919050565b6000602082019050818103600083015261512d81614440565b9050919050565b6000602082019050818103600083015261514d816144a6565b9050919050565b6000602082019050818103600083015261516d8161450c565b9050919050565b6000602082019050818103600083015261518d8161454c565b9050919050565b600060208201905081810360008301526151ad816145b2565b9050919050565b600060208201905081810360008301526151cd816145f2565b9050919050565b600060208201905081810360008301526151ed81614632565b9050919050565b6000602082019050818103600083015261520d81614698565b9050919050565b6000602082019050818103600083015261522d816146fe565b9050919050565b6000602082019050818103600083015261524d81614764565b9050919050565b6000602082019050818103600083015261526d816147ca565b9050919050565b6000602082019050818103600083015261528d81614830565b9050919050565b600060208201905081810360008301526152ad81614896565b9050919050565b600060208201905081810360008301526152cd816148fc565b9050919050565b600060208201905081810360008301526152ed8161493c565b9050919050565b6000602082019050818103600083015261530d816149a2565b9050919050565b6000602082019050818103600083015261532d81614a08565b9050919050565b6000602082019050818103600083015261534d81614a48565b9050919050565b6000602082019050818103600083015261536d81614aae565b9050919050565b6000602082019050818103600083015261538d81614b14565b9050919050565b600060208201905081810360008301526153ad81614ba0565b9050919050565b600060208201905081810360008301526153cd81614c06565b9050919050565b600060208201905081810360008301526153ed81614c6c565b9050919050565b6000602082019050818103600083015261540d81614cac565b9050919050565b6000602082019050818103600083015261542d81614cec565b9050919050565b6000602082019050818103600083015261544d81614d52565b9050919050565b6000602082019050818103600083015261546d81614dde565b9050919050565b6000602082019050818103600083015261548d81614e44565b9050919050565b60006020820190506154a96000830184614eaa565b92915050565b6000604051905081810181811067ffffffffffffffff821117156154d257600080fd5b8060405250919050565b600067ffffffffffffffff8211156154f357600080fd5b601f19601f8301169050602081019050919050565b600067ffffffffffffffff82111561551f57600080fd5b601f19601f8301169050602081019050919050565b600081519050919050565b600081519050919050565b600082825260208201905092915050565b600081905092915050565b600082825260208201905092915050565b600081905092915050565b600061558d826155fa565b9050919050565b600061559f826155fa565b9050919050565b60008115159050919050565b6000819050919050565b60007fffffffff0000000000000000000000000000000000000000000000000000000082169050919050565b60006155f382615582565b9050919050565b600073ffffffffffffffffffffffffffffffffffffffff82169050919050565b6000819050919050565b600060ff82169050919050565b82818337600083830152505050565b60005b8381101561565e578082015181840152602081019050615643565b8381111561566d576000848401525b50505050565b600061567e8261568f565b9050919050565b6000819050919050565b600061569a826156b2565b9050919050565b6000601f19601f8301169050919050565b60008160601b9050919050565b6156c881615582565b81146156d357600080fd5b50565b6156df81615594565b81146156ea57600080fd5b50565b6156f6816155a6565b811461570157600080fd5b50565b61570d816155b2565b811461571857600080fd5b50565b615724816155bc565b811461572f57600080fd5b50565b61573b816155e8565b811461574657600080fd5b50565b6157528161561a565b811461575d57600080fd5b50565b61576981615624565b811461577457600080fd5b5056fe4552433732313a207472616e7366657220746f206e6f6e20455243373231526563656976657220696d706c656d656e7465724552433732313a206f776e657220717565727920666f72206e6f6e6578697374656e7420746f6b656ea2646970667358221220eb8139cb06268298a3708aa1aed4c663c9e1874dcfc46384df3e71011e8a32f764736f6c634300060c0033",
  "immutableReferences": {},
  "source": "// SPDX-License-Identifier: MIT\n\npragma solidity ^0.6.0;\npragma experimental ABIEncoderV2;\n\n\nimport \"../node_modules/@openzeppelin/contracts/access/AccessControl.sol\";\nimport \"../node_modules/@openzeppelin/contracts/access/Ownable.sol\";\nimport \"../node_modules/@openzeppelin/contracts/utils/Counters.sol\";\nimport \"../node_modules/@openzeppelin/contracts/utils/EnumerableMap.sol\";\nimport \"../node_modules/@openzeppelin/contracts/utils/EnumerableSet.sol\";\nimport \"../node_modules/@openzeppelin/contracts/token/ERC721/ERC721.sol\";\nimport \"../node_modules/@openzeppelin/contracts/token/ERC721/ERC721Burnable.sol\";\nimport \"./ModifiedEnumerableMap.sol\";\nimport \"./ERC721Tradeable.sol\";\n\n\n/**\n * @dev {ERC721} token, including:\n *\n *  - ability for holders to burn (destroy) their tokens\n *  - a minter role that allows for token minting (creation)\n *  - a pauser role that allows to stop all token transfers\n *  - token ID and URI autogeneration\n *\n * This contract uses {AccessControl} to lock permissioned functions using the\n * different roles - head to its documentation for details.\n *\n * The account that deploys the contract will be granted the minter and pauser\n * roles, as well as the default admin role, which will let it grant both minter\n * and pauser roles to other accounts.\n */\ncontract NegativeEntropy is Context, AccessControl, ERC721Tradable {\n    using Counters for Counters.Counter;\n    using EnumerableSet for EnumerableSet.Bytes32Set;\n    using ModifiedEnumerableMap for ModifiedEnumerableMap.UintToBytes32Map;\n\n    //Role to designate who has approval to mint \n    bytes32 public constant MINTER_ROLE = keccak256(\"MINTER_ROLE\");\n    \n    //Initial maximum quantity\n    uint256 public maxQuantity = 1000;\n\n    //Price a constant value \n    //TODO: Consider making price variable?\n    uint256 public constant PRICE = 15E16;\n\n    //Address where transactions will be deposited\n    address payable public treasuryAddress;\n\n    //Counter to track amount of tokens currently in existence (including burned tokens)\n    Counters.Counter private tokenCounter;\n\n    //Set that contains all seeds, allowing for easy checks of existence of a given seed\n    EnumerableSet.Bytes32Set private seedSet;\n\n    //Map that holds mapping of tokenId to seed\n    ModifiedEnumerableMap.UintToBytes32Map private seedMap;\n\n    /**\n    * @dev Primary constructor to create an instance of NegativeEntropy\n    * Grants ADMIN and MINTER_ROLE to whoever creates the contract\n    *\n    */\n    constructor(address payable _tA, address _proxy) public ERC721Tradable(\"Negative Entropy\", \"NGTV\", _proxy) {\n        _setupRole(MINTER_ROLE, _msgSender());\n        _setupRole(DEFAULT_ADMIN_ROLE, _msgSender());\n        treasuryAddress = _tA;\n        proxyRegistryAddress = _proxy;\n    }\n\n\n    /**\n     * @dev Mint a token to _to and set the URI. TokenID is automatically assigned\n     * and URI is automatically generated based on whatever is passed in\n     *\n     * See {ERC721-_mint}.\n     */\n    function mint(\n        uint256 _tokenId,\n        address _to,\n        string calldata _tokenURI\n    ) internal {\n        _safeMint(_to, _tokenId);\n        _setTokenURI(_tokenId, _tokenURI);\n    }\n\n    /**\n     * @dev Mint a token to 'to' with a configurationURI already set\n     * using a minter\n     * The public endpoint for performing mint operations\n     *\n     * See {ERC721-_mint}.\n     * \n     * Requirements: \n     * \n     * - The caller must have a signature (v,r,s) that is properly signed by the minter\n     * - Minting the token must not create more tokens than are allowed to exist\n     * - The caller must have sufficient funds included in the transaction to afford the token\n     * - The caller must not be seeking to claim a seed that is already claimed\n     */\n    function mint(\n        address payable to,\n        uint8 v,\n        bytes32 r,\n        bytes32 s,\n        string calldata tokenURI,\n        string calldata seedDesired\n    ) public payable{\n        //Check for signature\n        require(\n            _signedByMinter(seedDesired, tokenURI, to, v, r, s),\n            \"Negative Entropy: minter must sign URI and ID!\"\n        );\n        //Check if we can mint based on number remaining\n        require(tokenCounter.current() < maxQuantity, \"NegativeEntropy: All NFTs have been claimed for this series\"); \n        require(msg.value >= PRICE, \"NegativeEntropy: Insufficient funds to mint a Negative Entropy NFT\");\n        require(!seedClaimed(seedDesired), \"NegativeEntropy: Seed has already been claimedhow did you make it this far?\");\n\n        //Where we get paid\n        treasuryAddress.transfer(PRICE);\n        to.transfer(msg.value.sub(PRICE));\n\n        mint(tokenCounter.current(), to, tokenURI);\n\n        //Last step\n        if(claimSeed(seedDesired, tokenCounter.current())) { \n            tokenCounter.increment();\n        } else {\n            revert('NegativeEntropy: Unable to add seed to map or set!');\n        }\n    }\n\n    /**\n    * @dev Regenerates the public key of the account which created the signature (v, r, s)\n    * using the URI and seed passed into the constructor. Allows for proper signing of transactions\n    * to repell spoofing attacks\n    *\n    */\n    function addressFromSignature(\n        string calldata seed,\n        string calldata tokenURI,\n        address account,\n        uint8 v,\n        bytes32 r,\n        bytes32 s\n    ) public view returns (address) {\n        if (v < 27) {\n            v += 27;\n        }\n\n        address _cont = address(this);\n        bytes memory prefix = \"\\x19Ethereum Signed Message:\\n32\";\n        bytes32 checkHash = keccak256(abi.encodePacked(_cont, account, seed, tokenURI));\n        bytes memory message = abi.encodePacked(prefix, checkHash);\n        bytes32 signed = keccak256(message);\n\n        return ecrecover(signed, v, r, s);\n    }\n\n    /**\n    * @dev Checks if the passed in signature (v, r, s) was signed by the minter\n    * \n    */\n    function _signedByMinter(\n        string calldata seed,\n        string calldata tokenURI,\n        address account,\n        uint8 v,\n        bytes32 r,\n        bytes32 s\n    ) internal view returns (bool) {\n        return hasRole(MINTER_ROLE, addressFromSignature(seed, tokenURI, account, v, r, s));\n    }\n\n    /**\n    * @dev Burns a token. See {ERC721Burnable}\n    *\n    * Requirements:\n    * \n    * - Caller must be owner or approved to burn tokens\n    * - Token must exist in seedMap\n    * - Token must exist in seedSet\n    */ \n    function burn(uint256 tokenId) public {\n        require(_isApprovedOrOwner(_msgSender(), tokenId), \"ERC721Burnable: caller is not owner nor approved\");\n        require(seedMap.contains(tokenId), 'NegativeEntropy: Token ID not found in storage  Are you sure it exists?');\n        require(seedSet.contains(seedMap.get(tokenId)), 'NegativeEntropy: Token ID not found in storage  Are you sure it exists?');\n        _burn(tokenId);\n        if(!removeSeed(tokenId)) {\n            revert();\n        }\n    }\n\n    /**\n    *\n    * GETTERS\n    *\n    */\n\n    /**\n    * @dev Checks if seed is claimed by checking if it is in seedSet\n    *\n    */\n    function seedClaimed(string memory checkSeed) public view returns (bool) {\n        return seedSet.contains(keccak256(bytes (checkSeed)));\n    }\n\n   \n\n    /**\n     * @dev gets the current number of tokens that have been created (including burned tokens)\n     * This behavior differs from totalSupply(), which returns tokens EXCLUDING those burned\n     */\n    function getTokenCount() public view returns (uint256) {\n        return tokenCounter.current();\n    }\n\n    /**\n    *\n    * SETTERS\n    *\n    */\n\n    /**\n    * @dev Claim a seed and map it to the passed in ID\n    *\n    */ \n    function claimSeed(string memory clmSeed, uint256 id) internal returns (bool) {\n        return seedSet.add(keccak256(bytes (clmSeed))) && seedMap.set(id, keccak256(bytes (clmSeed)));\n    } \n\n    /**\n    * @dev Remove a seed from both the map and the set\n    *\n    */\n    function removeSeed(uint256 id) internal returns (bool) {\n        if(!seedMap.contains(id)) return false;\n        bytes32 seedHash = seedMap.get(id);\n        if(!removeSeed(seedHash)) return false;\n        if(!seedMap.remove(id)) return false;\n        return true;\n    }\n\n    /**\n    * @dev Remove a seed from the set only\n    *\n    */\n    function removeSeed(bytes32 seedHash) internal returns (bool) {\n        return seedSet.remove(seedHash);\n    }\n\n    /**\n    * @dev increase the maximum quantity of tokens which are allowed to exist\n    *\n    */\n    function setMaxQuantity(uint256 quant) onlyOwner() public {\n        assert(hasRole(MINTER_ROLE, _msgSender()));\n        maxQuantity = quant;\n    }\n\n}",
  "sourcePath": "/Users/RobMontgomery/Documents/Programming/Javascript/negative-entropy/truffle/contracts/NegativeEntropy.sol",
  "compiler": {
    "name": "solc",
    "version": "0.6.12+commit.27d51765.Emscripten.clang"
  },
  "schemaVersion": "3.3.4",
  "updatedAt": "2021-04-05T06:42:39.819Z",
  "networkType": "ethereum",
  "devdoc": {
    "details": "{ERC721} token, including:  - ability for holders to burn (destroy) their tokens  - a minter role that allows for token minting (creation)  - a pauser role that allows to stop all token transfers  - token ID and URI autogeneration This contract uses {AccessControl} to lock permissioned functions using the different roles - head to its documentation for details. The account that deploys the contract will be granted the minter and pauser roles, as well as the default admin role, which will let it grant both minter and pauser roles to other accounts.",
    "kind": "dev",
    "methods": {
      "addressFromSignature(string,string,address,uint8,bytes32,bytes32)": {
        "details": "Regenerates the public key of the account which created the signature (v, r, s) using the URI and seed passed into the constructor. Allows for proper signing of transactions to repell spoofing attacks"
      },
      "approve(address,uint256)": {
        "details": "See {IERC721-approve}."
      },
      "balanceOf(address)": {
        "details": "See {IERC721-balanceOf}."
      },
      "baseURI()": {
        "details": "Returns the base URI set via {_setBaseURI}. This will be automatically added as a prefix in {tokenURI} to each token's URI, or to the token ID if no specific URI is set for that token ID."
      },
      "burn(uint256)": {
        "details": "Burns a token. See {ERC721Burnable} Requirements:  - Caller must be owner or approved to burn tokens - Token must exist in seedMap - Token must exist in seedSet"
      },
      "constructor": {
        "details": "Primary constructor to create an instance of NegativeEntropy Grants ADMIN and MINTER_ROLE to whoever creates the contract"
      },
      "getApproved(uint256)": {
        "details": "See {IERC721-getApproved}."
      },
      "getRoleAdmin(bytes32)": {
        "details": "Returns the admin role that controls `role`. See {grantRole} and {revokeRole}. To change a role's admin, use {_setRoleAdmin}."
      },
      "getRoleMember(bytes32,uint256)": {
        "details": "Returns one of the accounts that have `role`. `index` must be a value between 0 and {getRoleMemberCount}, non-inclusive. Role bearers are not sorted in any particular way, and their ordering may change at any point. WARNING: When using {getRoleMember} and {getRoleMemberCount}, make sure you perform all queries on the same block. See the following https://forum.openzeppelin.com/t/iterating-over-elements-on-enumerableset-in-openzeppelin-contracts/2296[forum post] for more information."
      },
      "getRoleMemberCount(bytes32)": {
        "details": "Returns the number of accounts that have `role`. Can be used together with {getRoleMember} to enumerate all bearers of a role."
      },
      "getTokenCount()": {
        "details": "gets the current number of tokens that have been created (including burned tokens) This behavior differs from totalSupply(), which returns tokens EXCLUDING those burned"
      },
      "grantRole(bytes32,address)": {
        "details": "Grants `role` to `account`. If `account` had not been already granted `role`, emits a {RoleGranted} event. Requirements: - the caller must have ``role``'s admin role."
      },
      "hasRole(bytes32,address)": {
        "details": "Returns `true` if `account` has been granted `role`."
      },
      "mint(address,uint8,bytes32,bytes32,string,string)": {
        "details": "Mint a token to 'to' with a configurationURI already set using a minter The public endpoint for performing mint operations See {ERC721-_mint}.  Requirements:   - The caller must have a signature (v,r,s) that is properly signed by the minter - Minting the token must not create more tokens than are allowed to exist - The caller must have sufficient funds included in the transaction to afford the token - The caller must not be seeking to claim a seed that is already claimed"
      },
      "name()": {
        "details": "See {IERC721Metadata-name}."
      },
      "owner()": {
        "details": "Returns the address of the current owner."
      },
      "ownerOf(uint256)": {
        "details": "See {IERC721-ownerOf}."
      },
      "renounceOwnership()": {
        "details": "Leaves the contract without owner. It will not be possible to call `onlyOwner` functions anymore. Can only be called by the current owner. NOTE: Renouncing ownership will leave the contract without an owner, thereby removing any functionality that is only available to the owner."
      },
      "renounceRole(bytes32,address)": {
        "details": "Revokes `role` from the calling account. Roles are often managed via {grantRole} and {revokeRole}: this function's purpose is to provide a mechanism for accounts to lose their privileges if they are compromised (such as when a trusted device is misplaced). If the calling account had been granted `role`, emits a {RoleRevoked} event. Requirements: - the caller must be `account`."
      },
      "revokeRole(bytes32,address)": {
        "details": "Revokes `role` from `account`. If `account` had been granted `role`, emits a {RoleRevoked} event. Requirements: - the caller must have ``role``'s admin role."
      },
      "safeTransferFrom(address,address,uint256)": {
        "details": "See {IERC721-safeTransferFrom}."
      },
      "safeTransferFrom(address,address,uint256,bytes)": {
        "details": "See {IERC721-safeTransferFrom}."
      },
      "seedClaimed(string)": {
        "details": "Checks if seed is claimed by checking if it is in seedSet"
      },
      "setApprovalForAll(address,bool)": {
        "details": "See {IERC721-setApprovalForAll}."
      },
      "setMaxQuantity(uint256)": {
        "details": "increase the maximum quantity of tokens which are allowed to exist"
      },
      "supportsInterface(bytes4)": {
        "details": "See {IERC165-supportsInterface}. Time complexity O(1), guaranteed to always use less than 30 000 gas."
      },
      "symbol()": {
        "details": "See {IERC721Metadata-symbol}."
      },
      "tokenByIndex(uint256)": {
        "details": "See {IERC721Enumerable-tokenByIndex}."
      },
      "tokenOfOwnerByIndex(address,uint256)": {
        "details": "See {IERC721Enumerable-tokenOfOwnerByIndex}."
      },
      "tokenURI(uint256)": {
        "details": "See {IERC721Metadata-tokenURI}."
      },
      "totalSupply()": {
        "details": "See {IERC721Enumerable-totalSupply}."
      },
      "transferFrom(address,address,uint256)": {
        "details": "See {IERC721-transferFrom}."
      },
      "transferOwnership(address)": {
        "details": "Transfers ownership of the contract to a new account (`newOwner`). Can only be called by the current owner."
      }
    },
    "version": 1
  },
  "userdoc": {
    "kind": "user",
    "methods": {
      "isApprovedForAll(address,address)": {
        "notice": "Override isApprovedForAll to whitelist user's OpenSea proxy accounts to enable gas-less listings."
      }
    },
    "version": 1
  }
}